{"abi":[{"type":"function","name":"agentCount","inputs":[],"outputs":[{"name":"","type":"uint256","internalType":"uint256"}],"stateMutability":"view"},{"type":"function","name":"agentList","inputs":[{"name":"","type":"uint256","internalType":"uint256"}],"outputs":[{"name":"","type":"address","internalType":"address"}],"stateMutability":"view"},{"type":"function","name":"agents","inputs":[{"name":"","type":"address","internalType":"address"}],"outputs":[{"name":"pubKeyHash","type":"bytes32","internalType":"bytes32"},{"name":"capabilityHash","type":"bytes32","internalType":"bytes32"},{"name":"stake","type":"uint256","internalType":"uint256"},{"name":"registeredAt","type":"uint256","internalType":"uint256"},{"name":"totalTasks","type":"uint256","internalType":"uint256"},{"name":"successfulTasks","type":"uint256","internalType":"uint256"},{"name":"active","type":"bool","internalType":"bool"}],"stateMutability":"view"},{"type":"function","name":"getReputation","inputs":[{"name":"agent","type":"address","internalType":"address"}],"outputs":[{"name":"score","type":"uint256","internalType":"uint256"},{"name":"total","type":"uint256","internalType":"uint256"},{"name":"successful","type":"uint256","internalType":"uint256"}],"stateMutability":"view"},{"type":"function","name":"isRegistered","inputs":[{"name":"agent","type":"address","internalType":"address"}],"outputs":[{"name":"","type":"bool","internalType":"bool"}],"stateMutability":"view"},{"type":"function","name":"recordTask","inputs":[{"name":"success","type":"bool","internalType":"bool"}],"outputs":[],"stateMutability":"nonpayable"},{"type":"function","name":"register","inputs":[{"name":"pubKeyHash","type":"bytes32","internalType":"bytes32"},{"name":"capabilityHash","type":"bytes32","internalType":"bytes32"}],"outputs":[],"stateMutability":"payable"},{"type":"event","name":"AgentRegistered","inputs":[{"name":"agent","type":"address","indexed":true,"internalType":"address"},{"name":"pubKeyHash","type":"bytes32","indexed":false,"internalType":"bytes32"},{"name":"stake","type":"uint256","indexed":false,"internalType":"uint256"}],"anonymous":false},{"type":"event","name":"ReputationUpdated","inputs":[{"name":"agent","type":"address","indexed":true,"internalType":"address"},{"name":"totalTasks","type":"uint256","indexed":false,"internalType":"uint256"},{"name":"successfulTasks","type":"uint256","indexed":false,"internalType":"uint256"}],"anonymous":false},{"type":"event","name":"TaskCompleted","inputs":[{"name":"agent","type":"address","indexed":true,"internalType":"address"},{"name":"success","type":"bool","indexed":false,"internalType":"bool"}],"anonymous":false}],"bytecode":{"object":"0x6080604052348015600e575f5ffd5b50610dbb8061001c5f395ff3fe60806040526004361061006f575f3560e01c8063b1ffd1531161004d578063b1ffd15314610109578063b7dc128414610131578063c3c5a5471461015b578063fd66091e146101975761006f565b80632f80c54f146100735780632f926732146100af5780639c89a0e2146100cb575b5f5ffd5b34801561007e575f5ffd5b5061009960048036038101906100949190610833565b6101d9565b6040516100a6919061089d565b60405180910390f35b6100c960048036038101906100c491906108e9565b610214565b005b3480156100d6575f5ffd5b506100f160048036038101906100ec9190610951565b610464565b6040516101009392919061098b565b60405180910390f35b348015610114575f5ffd5b5061012f600480360381019061012a91906109f5565b6104fa565b005b34801561013c575f5ffd5b50610145610753565b6040516101529190610a20565b60405180910390f35b348015610166575f5ffd5b50610181600480360381019061017c9190610951565b61075f565b60405161018e9190610a48565b60405180910390f35b3480156101a2575f5ffd5b506101bd60048036038101906101b89190610951565b6107b3565b6040516101d09796959493929190610a70565b60405180910390f35b600181815481106101e8575f80fd5b905f5260205f20015f915054906101000a900473ffffffffffffffffffffffffffffffffffffffff1681565b5f5f3373ffffffffffffffffffffffffffffffffffffffff1673ffffffffffffffffffffffffffffffffffffffff1681526020019081526020015f206006015f9054906101000a900460ff16156102a0576040517f08c379a000000000000000000000000000000000000000000000000000000000815260040161029790610b37565b60405180910390fd5b5f34116102e2576040517f08c379a00000000000000000000000000000000000000000000000000000000081526004016102d990610b9f565b60405180910390fd5b6040518060e001604052808381526020018281526020013481526020014381526020015f81526020015f8152602001600115158152505f5f3373ffffffffffffffffffffffffffffffffffffffff1673ffffffffffffffffffffffffffffffffffffffff1681526020019081526020015f205f820151815f01556020820151816001015560408201518160020155606082015181600301556080820151816004015560a0820151816005015560c0820151816006015f6101000a81548160ff021916908315150217905550905050600133908060018154018082558091505060019003905f5260205f20015f9091909190916101000a81548173ffffffffffffffffffffffffffffffffffffffff021916908373ffffffffffffffffffffffffffffffffffffffff1602179055503373ffffffffffffffffffffffffffffffffffffffff167f4972e8ca1eb9b0cd0d64f25278a998f0f7dec1914db16e87cab22d83877836348334604051610458929190610bbd565b60405180910390a25050565b5f5f5f5f5f5f8673ffffffffffffffffffffffffffffffffffffffff1673ffffffffffffffffffffffffffffffffffffffff1681526020019081526020015f2090505f8160040154036104c0575f5f5f935093509350506104f3565b806004015461271082600501546104d79190610c11565b6104e19190610c7f565b93508060040154925080600501549150505b9193909250565b5f5f3373ffffffffffffffffffffffffffffffffffffffff1673ffffffffffffffffffffffffffffffffffffffff1681526020019081526020015f206006015f9054906101000a900460ff16610585576040517f08c379a000000000000000000000000000000000000000000000000000000000815260040161057c90610cf9565b60405180910390fd5b5f5f3373ffffffffffffffffffffffffffffffffffffffff1673ffffffffffffffffffffffffffffffffffffffff1681526020019081526020015f206004015f8154809291906105d490610d17565b91905055508015610634575f5f3373ffffffffffffffffffffffffffffffffffffffff1673ffffffffffffffffffffffffffffffffffffffff1681526020019081526020015f206005015f81548092919061062e90610d17565b91905055505b3373ffffffffffffffffffffffffffffffffffffffff167f86b0f06518059e6fa59b029ea6c3a62862f6ce17f5ba015e229c7b66bdd439438260405161067a9190610a48565b60405180910390a23373ffffffffffffffffffffffffffffffffffffffff167f5b88a2e3fc1a53234357ab78c104df11c33ccfa79886793654565ad70b8afb6e5f5f3373ffffffffffffffffffffffffffffffffffffffff1673ffffffffffffffffffffffffffffffffffffffff1681526020019081526020015f20600401545f5f3373ffffffffffffffffffffffffffffffffffffffff1673ffffffffffffffffffffffffffffffffffffffff1681526020019081526020015f2060050154604051610748929190610d5e565b60405180910390a250565b5f600180549050905090565b5f5f5f8373ffffffffffffffffffffffffffffffffffffffff1673ffffffffffffffffffffffffffffffffffffffff1681526020019081526020015f206006015f9054906101000a900460ff169050919050565b5f602052805f5260405f205f91509050805f015490806001015490806002015490806003015490806004015490806005015490806006015f9054906101000a900460ff16905087565b5f5ffd5b5f819050919050565b61081281610800565b811461081c575f5ffd5b50565b5f8135905061082d81610809565b92915050565b5f60208284031215610848576108476107fc565b5b5f6108558482850161081f565b91505092915050565b5f73ffffffffffffffffffffffffffffffffffffffff82169050919050565b5f6108878261085e565b9050919050565b6108978161087d565b82525050565b5f6020820190506108b05f83018461088e565b92915050565b5f819050919050565b6108c8816108b6565b81146108d2575f5ffd5b50565b5f813590506108e3816108bf565b92915050565b5f5f604083850312156108ff576108fe6107fc565b5b5f61090c858286016108d5565b925050602061091d858286016108d5565b9150509250929050565b6109308161087d565b811461093a575f5ffd5b50565b5f8135905061094b81610927565b92915050565b5f60208284031215610966576109656107fc565b5b5f6109738482850161093d565b91505092915050565b61098581610800565b82525050565b5f60608201905061099e5f83018661097c565b6109ab602083018561097c565b6109b8604083018461097c565b949350505050565b5f8115159050919050565b6109d4816109c0565b81146109de575f5ffd5b50565b5f813590506109ef816109cb565b92915050565b5f60208284031215610a0a57610a096107fc565b5b5f610a17848285016109e1565b91505092915050565b5f602082019050610a335f83018461097c565b92915050565b610a42816109c0565b82525050565b5f602082019050610a5b5f830184610a39565b92915050565b610a6a816108b6565b82525050565b5f60e082019050610a835f83018a610a61565b610a906020830189610a61565b610a9d604083018861097c565b610aaa606083018761097c565b610ab7608083018661097c565b610ac460a083018561097c565b610ad160c0830184610a39565b98975050505050505050565b5f82825260208201905092915050565b7f416c7265616479207265676973746572656400000000000000000000000000005f82015250565b5f610b21601283610add565b9150610b2c82610aed565b602082019050919050565b5f6020820190508181035f830152610b4e81610b15565b9050919050565b7f5374616b652072657175697265640000000000000000000000000000000000005f82015250565b5f610b89600e83610add565b9150610b9482610b55565b602082019050919050565b5f6020820190508181035f830152610bb681610b7d565b9050919050565b5f604082019050610bd05f830185610a61565b610bdd602083018461097c565b9392505050565b7f4e487b71000000000000000000000000000000000000000000000000000000005f52601160045260245ffd5b5f610c1b82610800565b9150610c2683610800565b9250828202610c3481610800565b91508282048414831517610c4b57610c4a610be4565b5b5092915050565b7f4e487b71000000000000000000000000000000000000000000000000000000005f52601260045260245ffd5b5f610c8982610800565b9150610c9483610800565b925082610ca457610ca3610c52565b5b828204905092915050565b7f4e6f7420726567697374657265640000000000000000000000000000000000005f82015250565b5f610ce3600e83610add565b9150610cee82610caf565b602082019050919050565b5f6020820190508181035f830152610d1081610cd7565b9050919050565b5f610d2182610800565b91507fffffffffffffffffffffffffffffffffffffffffffffffffffffffffffffffff8203610d5357610d52610be4565b5b600182019050919050565b5f604082019050610d715f83018561097c565b610d7e602083018461097c565b939250505056fea2646970667358221220b84ef379147c83559aee297efd3ea26cd74b045c6ee19b150cbbbad7d13af4e064736f6c63430008210033","linkReferences":{}},"methodIdentifiers":{"agentCount()":"b7dc1284","agentList(uint256)":"2f80c54f","agents(address)":"fd66091e","getReputation(address)":"9c89a0e2","isRegistered(address)":"c3c5a547","recordTask(bool)":"b1ffd153","register(bytes32,bytes32)":"2f926732"},"id":21}